:100000000C9421040C9459040C9459040C94590434
:100010000C9459040C9459040C9459040C945904EC
:100020000C9459040C9459040C94BF190C94551E4B
:100030000C947B290C9459040C9459040C94590485
:100040000C9459040C9459040C9459040C945904BC
:100050000C9459040C94981A0C9459040C94590457
:100060000C9459040C9459040C9459040C9459049C
:100070000C9459040C9459040C9459040C9459048C
:100080000C9459040C9459040C9459040C9459047C
:100090000C9459040C9459040C9459040C9459046C
:1000A0000C9459040C9459040C9459040501090248
:1000B000A10185020901A1000509190129081500FE
:1000C0002501950875018102050109300931158165
:1000D000257F95027508810609381581257F9501D0
:1000E00075088106050C0A38021581257F95017572
:1000F000088106C0C005010980A101850319012AF4
:10010000B700150126B700950175108100C0050CD8
:100110000901A101850419012AA002150126A002E6
:10012000950175108100C005010906A1018506052C
:100130000719E029E71500250195087501810205D9
:1001400007190029EF1500250195F07501810205B9
:10015000081901290595057501910295017503910D
:1001600001C00660FF0961A1010962150026FF00B8
:100170009540750881020963150026FF00954075BA
:10018000089102C005010906A101050719E029E748
:1001900015002501950875018102950175088101F9
:1001A0000507190029FF150026FF0095067508812F
:1001B000000508190129059505750191029501753C
:1001C000039101C0000000000000000000000000DA
:1001D000000000000000000000000000000000001F
:1001E00000000000000000007E0F00D4FFFFFFC7EA
:1001F0000000007800000000000000002A2B28000A
:1002000000000000000000000000000000000029C5
:10021000000000002C1E3420212224342627252E05
:10022000362D3738271E1F2021222324252633333D
:10023000362E37381F0405060708090A0B0C0D0E69
:100240000F101112131415161718191A1B1C1D2F35
:100250003130232D350405060708090A0B0C0D0E55
:100260000F101112131415161718191A1B1C1D2F15
:100270003130354C0001010101010101010102028F
:100280000202020202020203030303030303030444
:10029000040404040404050505050506060606060F
:1002A000070707070708080808090909090A0A0AC9
:1002B0000B0B0B0C0C0C0D0D0D0E0E0E0F0F0F106B
:1002C00010111111121213131414151516161717F5
:1002D000181819191A1A1B1B1C1D1D1E1E1F202061
:1002E000212222232424252626272829292A2B2CAB
:1002F0002D2D2E2F30313232333435363738393ACE
:100300003B3C3D3E3F404142434445464748494AC5
:100310004C4D4E4F50515354555658595A5B5D5E93
:100320005F616264656668696B6C6D6F707273752E
:1003300077787A7B7D7E8082838587888A8C8E8F92
:1003400091939596989A9C9EA0A2A3A5A7A9ABADC0
:10035000AFB1B3B5B7BABCBEC0C2C4C6C9CBCDCFAE
:10036000D1D4D6D8DBDDDFE2E4E7E9EBEEF0F3F55C
:10037000F8FAFDFF207080019850020910318410B6
:100380008811061800F2871F78D20927F0B28B2E49
:1003900068930D36E0738F3D68900106E070830D21
:1003A00058510515D031871C48120924C0F28A2BF8
:1003B0002CA04002A480C2091C6144119441C618BB
:1003C0000C2248208402CA27FCE24B2F74C3CD368E
:1003D000ECA34F3E38D30C33B0B38E3A289410427E
:1003E00074C0C106ECA0430E6481C515DC61471DD5
:1003F0005442C92438D00003B0B0820A28910412B4
:10040000A07186191852082190328A2808130C30DE
:1004100080F38D37F8D30F3FCC224B2C4403CD33E0
:10042000BCE34E3B34C4D04240F490436484D14595
:100430004400C103BCE0420B34C1C412ACA1461A53
:100440002482C8219C624A291443CC308C234E3824
:100450000404D03F88141248ACA4524AD034934CC0
:10046000F4C4D34E185514513CE554535030810414
:10047000C810030C40F18413B8D1061B30B2882297
:10048000A8920A2A20738C3198530E391034904068
:10049000607595554C24514470B491469444D248AB
:1004A000B8D4124BDC64534D00F5934F2485D451DE
:1004B0005C604105D440C30C4C214514C401C71BEA
:1004C0003CE24823B4C2CA2A2CA34C32A483CE39BE
:1004D0001C645041481515546CA555565854114587
:1004E00029003A003B003C003D003E003F00400038
:1004F00041004200430044004500460047003500EB
:100500001E001F00200021002200230024002500DF
:10051000260027002D002E002A0049002B00140081
:100520001A000800150017001C0018000C0012002B
:1005300013002F00300031004C0039000400160079
:10054000070009000A000B000D000E000F00330029
:100550003400280000000000E1001D001B00060020
:100560001900050011001000360037003800E500C2
:10057000000052000000E000E300E2000000000084
:100580002C00000000000000E6000151E4005000D3
:1005900051004F000100B15DB25D0100010001009A
:1005A0000100010001000100010001000100010043
:1005B000C25C010001000100010001000100010016
:1005C00001000100010001004C0001004D0001008C
:1005D000010001000100C55CC65CC75CC85CC95C69
:1005E000CA5CC35C01000100010049000100010078
:1005F00001000100010001000100010001000100F3
:1006000001000100010001000000000001000100E4
:100610000100010001000100145C01000100010063
:10062000010001000000A90000000100010001001C
:1006300000000000010000000000000001000100B7
:100640000100AC00AA00AB000100010001000100A4
:100650000100010001000100010001000100010092
:100660000100010001000100010001000100010082
:100670000100010001000100010001000100010072
:100680000100010001000100010001000100010062
:100690000100010001000100010001000100010052
:1006A0000100010001000100010001000100010042
:1006B0000100010001000100010001000000000034
:1006C0000100010001000100010001000100010022
:1006D0000100010001000100000001000000010014
:1006E0000100010000000000010000000000000007
:1006F00001000100010001000100010001000100F2
:1007000001000100010001000100010001000100E1
:1007100001000100010001000100010001000100D1
:1007200001000100010001000100010001000100C1
:1007300001000100010001000100010001000100B1
:1007400001000100010001000100010001000100A1
:100750000100010001000100010001000100010091
:100760000100010001000100010001000100010081
:100770000000000001000100010001000100010073
:100780000100010001000100010001000000010062
:100790000000010001000100000000000100000055
:1007A0000000000001000100010001000100010043
:1007B00009025B00030100A0FA0904000001030123
:1007C00001000921110100012240000705810308F1
:1007D00000010904010002030000000921110100C9
:1007E00001222200070582034000010705030340A0
:1007F00000010904020001030000000921110100A9
:100800000122B60007058403200001120100020046
:10081000000008EDED81000100010200010C0374ED
:10082000006500670069006300000010034D00656B
:10083000006C004700650065006B000000040309C0
:10084000040011241FBECFEFDAE0DEBFCDBF04B637
:1008500003FE18C080910C0990910D09A0910E091A
:10086000B0910F098730904BA740B04B59F41092CC
:100870000C0910920D0910920E0910920F09E0E078
:10088000F8E3099529E0AAE4B4E001C01D92AC3078
:10089000B207E1F714E0A0E0B1E0E2E3FBE602C05A
:1008A00005900D92AA34B107D9F70E94A2290C94A1
:1008B00039350C940000E8EDF0E080818E7F808374
:1008C0001092E2001092DA001092E100A0EEB0E087
:1008D0008C9181608C9380818F77808319BCA7ED88
:1008E000B0E08C918E7F8C9380818F7E808310927C
:1008F000A60808952091E4003091E50095E6A9014D
:100900002091EC00822F817020FF06C08091E800CA
:1009100080FF06C080E008952091E80022FD1AC003
:100920008091D408882389F0853089F08091EB008C
:1009300085FD0FC02091E4003091E5004217530778
:10094000F9F29150E1F684E0089582E0089583E0A1
:10095000089581E00895EF92FF920F931F93CF9334
:100960007C018B010E947A04C82F811117C08091ED
:10097000E80085FD0BC08091E8008E778093E80049
:100980000E947A04882399F3C82F08C0F701819147
:100990007F018093F1000150110949F78C2FCF910D
:1009A0001F910F91FF90EF900895CF93FC018091DC
:1009B000D408843001F5C091E900CF702091EC009B
:1009C000922F917020FD90E8C92B82E08093E9007E
:1009D0008091E80080FF0CC050E040E060E470E0EF
:1009E000CF010E94AB048091E8008E778093E800ED
:1009F000CF70C093E900CF9108958091CC0887FF14
:100A000013C08091E80082FF06C08091E8008B77D8
:100A10008093E80004C08091D4088111F2CF08953A
:100A20008091D4088823D9F38091E80080FFF8CF23
:100A30008091E8008E77ECCF982F9093E900242FD7
:100A4000762F50E0891731F07091EC002091ED0085
:100A50005091F00021FD07C09F5F973071F78093A0
:100A6000E90081E008953091EB003E7F3093EB0088
:100A70003091ED003D7F3093ED003091EB0031601F
:100A80003093EB007093EC002093ED005093F00056
:100A90002091EE0027FDE0CF80E00895B0E0A0E0D7
:100AA000E4E5F5E00C941332C8EDD0E088818F7E48
:100AB0008883E7EDF0E080818160808384E082BFFD
:100AC00081E08093A60888818E7F888302EE10E003
:100AD000F80110821092DA0081EEC82ED12CF601B6
:100AE000108288818F778883888180688883888155
:100AF0008F7D888319BC1092D4081092CB08109275
:100B0000CA081092C90890EEE92EF12CF7018081F5
:100B10008B7F808388818160888342E060E080E011
:100B20000E941C05F60180818E7F8083F801808100
:100B300081608083808188608083F70180818E7FDF
:100B40008083888180618883CDB7DEB7E8E00C942C
:100B50002F32FC018091D2089091D3088617970715
:100B6000A0F06115710529F49091E8009E779093AB
:100B7000E80090E06115710551F4911108C0809171
:100B8000E80082FF34C080E00895BC01F2CF80917C
:100B9000D4088823C1F18530C1F18091E80083FD3C
:100BA00030C08091E80082FDEACF8091E80080FFAC
:100BB000E1CF8091F3002091F200382F611571058B
:100BC00019F02830310558F091E02830310509F04E
:100BD00090E02091E8002E772093E800CBCF819120
:100BE0008093F100615071092F5F3F4FE7CF8091F3
:100BF000D408882341F0853041F08091E80083FFDC
:100C0000BECF81E0089582E0089583E008950895BD
:100C10008091A80808952FB7F89460919D0870916D
:100C20009E0880919F089091A0082FBF0895209161
:100C300026022223C9F02091A10827FF15C0E62F24
:100C4000E695E695E695EE31D8F4E80FF92FF11D1B
:100C5000677021E030E001C0220F6A95EAF7209525
:100C60008281282322830895FC01329608962191DF
:100C7000621303C0DF0111971C92E817F907B9F757
:100C80000895209126022223C1F02091A10827FF78
:100C900014C0E62FE695E695E695EE31F8F4E80FF8
:100CA000F92FF11D677021E030E001C0220F6A9535
:100CB000EAF78281822B82830895FC0132962FEF1E
:100CC00030E04191641751F02F3F19F4411101C0F8
:100CD000232F3F5F3630A9F72F3F09F40895820F85
:100CE000911D27FD9A95FC016283089520919A0831
:100CF00030919B082817390771F090939B088093D7
:100D00009A08E0919808F0919908309721F00084B2
:100D1000F185E02D09950895209196083091970866
:100D20002817390771F09093970880939608E091FF
:100D30009808F0919908309721F00680F781E02D0E
:100D400009950895E0919808F0919908309729F055
:100D50000190F081E02D0995089580E00895FA0151
:100D6000811101C0FB0109950895FC019B01AC01B3
:100D700097FF04C044275527481B590BBA01620F3F
:100D8000731F37FD0FC0241B350BC901A5E0880F69
:100D9000991FAA95E1F70E944C3280E2861BF7FD6D
:100DA00081950895CB0165E0880F991F6A95E1F759
:100DB000BA01621B730B0E944C3280E6EFCFE9ED63
:100DC000F8E0248130E1231B08F420E024838091A3
:100DD00095058160809395050895E9EDF8E02481FB
:100DE00030E1230F08F42FEF248380919505816073
:100DF0008093950508959091D908937059F0809348
:100E0000DA086093DB084093DC0880919505822B1B
:100E1000809395050895E9EDF8E0438120E1421BB8
:100E200008F440E0818121E0628190E00E94FB06AD
:100E30000895E9EDF8E0438120E1420F08F44FEF17
:100E4000818121E0628190E00E94FB060895E9ED36
:100E5000F8E0628120E1621B08F460E0818121E01A
:100E6000438190E00E94FB060895E9EDF8E062817D
:100E700020E1620F08F46FEF818121E0438190E06F
:100E80000E94FB060895E9EDF8E0818121E04381AD
:100E900062818850990B0E94FB060895E9EDF8E005
:100EA000818190E021E04381628108960E94FB06E7
:100EB00008959091D908937061F081110BC09460EE
:100EC0009093D9081092230280919505862B8093E8
:100ED00095050895843210F09C68F2CF880F880F32
:100EE000982BEECF8091D90886958695815009F48C
:100EF00083E261E00E94590708958091D9088695A0
:100F000086958F5F843208F081E061E00E94590786
:100F1000089560E00E94590708958091D908837070
:100F200011F0109223028091D9088C7F8093D90808
:100F30000895EF92FF920F939701201B31092F3FE5
:100F4000310519F010F02FEF30E02095382F320FD7
:100F500008F43FEF832F0F91FF90EF900895EF92E9
:100F6000FF920F939701201B31092F3F310519F094
:100F700010F02FEF30E0322F3095482F430F08F458
:100F80004FEF842F620F0F91FF90EF900895EF9233
:100F9000FF920F93972F093438F4B701601B710942
:100FA0006F3F710519F010F06FEF70E0485F5F4F11
:100FB0004131510540F0A901485F5F4F4131510572
:100FC00010F06FEF70E06095482F460F08F44FEF78
:100FD000842F37FF02C02D5F3F4F359527953595FC
:100FE00027956091DA08620F792F0F91FF90EF90AB
:100FF0000895EF92FF920F931F930E0D1F2D111D59
:10100000F90137FF03C0F195E195F10924E0EE0FF6
:10101000FF1F2A95E1F7EF3FF10519F014F0EFEF0C
:10102000F0E09A0157FF03C031952195310994E012
:10103000220F331F9A95E1F72E173F070CF4F901A1
:10104000E00FF11FEF3FF10519F010F0EFEFF0E0C6
:10105000E095282F3E2F230F08F42FEF822F1F91AA
:101060000F91FF90EF900895EF92FF920F939701E9
:1010700095E0099F200D311D11242F3F310519F0F6
:1010800010F02FEF30E02095382F320F08F43FEFAB
:10109000832F0F91FF90EF90089522E8241B08F40E
:1010A00020E0620F08954095282F429F412D112482
:1010B000842F0895E42FF0E0EE0FFF1FE75CFC4F54
:1010C0009081921B97FD9195292F38E1239F212D27
:1010D0001124620F08950F931F9310E0F801EE0F93
:1010E000FF1FE75CFC4F9081945597FD9195000F91
:1010F000111FF801E65CFC4F00810851110B200321
:10110000F001219FF00D112408E310E0091B1109E3
:1011100097FD139540039001419F300D1124E20F7C
:10112000F31F9F01220F331F2E0F3F1F37FF02C0F7
:1011300021583F4F220F232F221F330B620F1F9185
:101140000F9108950F931F93522F10E0F801EE0FA7
:10115000FF1FE65CFC4FA081A851BB0B9D01520311
:10116000F001539FF00D1124000F111FD801A75C4F
:10117000BC4F0C910455110B40039001419F300D61
:1011800011242E0F3F1F37FF02C0215C3F4F96E016
:10119000359527959A95E1F7620F1F910F91089564
:1011A0000F931F93522F10E0F801EE0FFF1FE65C24
:1011B000FC4FA081A851BB0B9D015203F001539F2E
:1011C000F00D1124000F111FD801A75CBC4F0C912A
:1011D0000455110B40039001419F300D11242E0F37
:1011E0003F1F37FF02C021583F4F220F232F221FDE
:1011F000330B620F1F910F910895EF920F93972F6A
:1012000023E0029FB0011124759567956E0D792F2B
:101210000F91EF900895322F50E0FA01EE0FFF1F6B
:10122000E65CFC4F9081985197FD9195440F551FB6
:10123000FA01E75CFC4F2081231B330B290F311D82
:1012400097FD3A95620F0895E42FF0E0EE0FFF1F2F
:10125000E65CFC4F6081621B0895E42FF0E0EE0F26
:10126000FF1FE75CFC4F6081621B0895622F0895A9
:10127000E42FF0E0EE0FFF1FE75CFC4F408134EEFF
:10128000439F412D1124E82FF0E050E0445E5F4F72
:10129000DA01A21BB1099D01B7FF03C03195219569
:1012A000310993E0220F331F9A95E1F7AF01421BFA
:1012B000530B9A0157FD20E0582F259F212D112413
:1012C000822F0895E42FF0E0EE0FFF1FE75CFC4F44
:1012D000408134EE439F412D1124E72FF0E050E090
:1012E000445E5F4FDA01A21BB1099D01B7FF03C045
:1012F00031952195310993E0220F331F9A95E1F73B
:10130000AF01421B530B9A0157FD20E0279F212D6F
:101310001124722F08950E94FC1308950E949213C5
:101320000895EF920F93CF93DF93D72FC82FC90162
:101330000E19009729F480E857FD05C080E003C02E
:10134000BA010E94B506602F681B7D2F8C2FDF919C
:10135000CF910F91EF9008950F93CF93DF93D72FF5
:10136000C82FC901009729F480E857FD05C080E027
:1013700003C0BA010E94B506602F680F7D2F8C2F25
:10138000DF91CF910F910895E82F86FDE0952E2FE4
:101390002F7086FD2F5FE695E695E695E670F0E006
:1013A000E853FD4F9181929F902D212D112492950C
:1013B0009F702295207F922B2081920F87FD91951F
:1013C00080E8890F08950F931F93CF93DF938B01CC
:1013D000D82FC42F822F0E94C409EC2FF0E0EE0F0B
:1013E000FF1FE75CFC4F90819058890F87FD819526
:1013F000880F682F2CE0629F612D1124600F712FE0
:101400008D2FDF91CF911F910F910895AC01823004
:10141000910508F408959FEF413E8EE1580740F48E
:101420009A0195E0369527959A95E1F798E0920F05
:1014300061E0E62FE90FFF27FF1F9F0135952795F4
:10144000822F229FF001239FF00DF00D11244E17E3
:101450005F0738F49FEF920F961758F78FEF860FBC
:1014600008952F3FE9F361E0620FF6CF0F93CF931A
:10147000DF93D72FC82F47FD41958AE290E0841B68
:10148000910947FD9395889FB001899F700D700D5C
:101490001124229FC001239F900D900D1124860FCF
:1014A000971F0E94060A982F990F890F682F600FC7
:1014B0007D2F8C2FDF91CF910F91089530E020E0A8
:1014C000869F212D969F200D311D1124C90108955D
:1014D000AF92BF92CF92DF92FF920F931F93CF9361
:1014E000DF93362F472FE82FF0E0EC58FD4F7111B6
:1014F0000FC0E4918E2F2E2F6E2F722FDF91CF9180
:101500001F910F91FF90DF90CF90BF90AF90089503
:10151000C72FD0E02491F22E022F10E056E0659FF5
:10152000C0011124EFEFF0E0BF010E94F531832FDD
:1015300090E0880F991F35E5369FD001379FB00D99
:1015400011248A1B9B0B982F990F980F6F01CC1AAF
:10155000DD0AC09ED001C19EB00DD09EB00D1124F9
:101560008B2F499FA0011124452F55276F01C41AC5
:10157000D50AC09EA001C19E500DD09E500D1124D1
:101580005F01A91AB108AC9E6001AD9ED00CBC9E53
:10159000D00C1124CD2CDD24EC19FD09E09FE001D5
:1015A000E19FD00DF09FD00D1124ED2F6230710519
:1015B000A1F050F46115710509F49ECF61307105F9
:1015C00081F0EB2F852F98CF6430710569F080F0A2
:1015D0006630710509F490CFF4CFE22F2B2F8D2FB9
:1015E0008BCFE22F252F88CFEB2F822F2D2F84CF6B
:1015F0002B2F8F2DE52F80CF0F931F93CF93DF934A
:10160000EC01FC01E151FC4F80816823D1F1009194
:10161000DB081091DC084091DA08E42FF0E06091DB
:1016200024027091250285E098E0689F9001699FEF
:10163000300D789F300D1124275E394C30932502F0
:1016400020932402CF018C549F4F68E671E00E94E2
:101650004C328E1B9F0B97FD03969595879595951C
:101660008795230F2370642F289F600D1124702FFE
:10167000812F0E94680A462F282F672FCE010E94D3
:101680008E09DF91CF911F910F9108952F923F9274
:101690005F926F927F928F929F92AF92BF92CF9202
:1016A000DF92EF92FF920F931F93CF93DF93CDB70B
:1016B000DEB72A970FB6F894DEBF0FBECDBF8B837F
:1016C0007E836D8320913B02220F220F2F832C5F9C
:1016D00029832A832C3510F03BE53A838091DF087B
:1016E0008C83FF81EF2FF0E0FA87E987CF01880F25
:1016F000991F9C01275C3C4F69013B81832F90E03F
:10170000FC013196F887EF838A8199859817E8F074
:1017100081E0E981EB3508F080E02A960FB6F89475
:10172000DEBF0FBECDBFDF91CF911F910F91FF9014
:10173000EF90DF90CF90BF90AF909F908F907F9071
:101740006F905F903F902F900895E985FA85E15161
:10175000FC4F808190913C028923F1F02090DA08BF
:101760003090DB082F8138852152374F39015B805B
:1017700010E0FC815F16D0F02091DC08129F112D43
:101780001124B101812F0E94680A462F282F672F4C
:1017900089859A850E948E0929853A852F5F3F4F5A
:1017A0003A87298732E0C30ED11CAECFF301819175
:1017B0003F01F601A080A81ABB088180F301878150
:1017C000881A9908AA9C9001AB9C300D300D112409
:1017D000889CC001899C900D900D1124820F931F4D
:1017E0000E94060A082F6091DD0821E0620F08F4CC
:1017F0006FEFF301EE0FFF1FEF5DF84085899689CB
:101800000E945E0A7C019401A501B101812FED8146
:10181000FE8109951B015394182FABCFB0E0A0E0D7
:10182000E4E1FCE00C9413328C01C0913B02CC0F3C
:10183000CC0F24E0D22EDC0ECD2C2BE52D1510F490
:101840009BE5C92E2091DD0831E0230F08F42FEF2E
:1018500030E050E040E06FEF7FEF80E090E00E94EA
:101860003A337901D0E02C2FCC1550F081E0FAE525
:10187000FD1508F480E0CDB7DEB7E8E00C942F3218
:10188000FE01E151FC4F808190913C02892311F1CE
:101890004091DF084150042E000C550B47FF1CC03F
:1018A000C7016091DD0821E0620F08F46FEF0E942C
:1018B0005E0AAC016091DA087091DB088091DC0867
:1018C000F80109950E94680A462F282F672FCE013C
:1018D0000E948E092196C7CFFA01E152F74F818904
:1018E00082130AC0FA01EE0FFF1FE152F74F818DFC
:1018F000928D8E159F05A8F241505109CFCFB0E0CF
:10190000A0E0E5E8FCE00C9414327C01C0913B02BD
:10191000CC0FCC0F14E01C0F012F1C3508F00BE589
:101920006091DD086695669521E0620F08F46FEF1F
:101930008091D5089091D6080E945E0AD82ED0E0FA
:10194000C01748F081E01B3508F080E0CDB7DEB766
:10195000E7E00C943032FE01E151FC4F8081909120
:101960003C02892391F06091DA087091DB08809144
:10197000DC082D2D4C2FF70109950E94680A462F8F
:10198000282F672FCE010E948E092196D9CFB0E073
:10199000A0E0EDECFCE00C9410326C01C0913B0235
:1019A000CC0FCC0F14E01C0FB12E1C3510F03BE512
:1019B000B32E6091DD08669566958091D50890916B
:1019C000D6080E945E0AF82E80E48F0D0E94C4099A
:1019D00090E8A92EA80E8F2D0E94C40920E8922E0F
:1019E000980ED0E0CB1548F081E01B3508F080E080
:1019F000CDB7DEB7EBE00C942C32FE01E151FC4F89
:101A0000808190913C028923A1F06091DA08709165
:101A1000DB088091DC08EF2C0C2F292D4A2DF601D4
:101A200009950E94680A462F282F672FCE010E9431
:101A30008E092196D7CFB0E0A0E0E1E2FDE00C9462
:101A40000E325C01C0913B02CC0FCC0F14E01C0F96
:101A5000F12E1C3510F03BE5F32E6091DD08669504
:101A60008091D5089091D6080E945E0A782ED0E029
:101A7000CF1548F081E01B3508F080E0CDB7DEB728
:101A8000EDE00C942A32FE01E151FC4F80819091EF
:101A90003C028923C9F1CE01880F991F81529D4FC5
:101AA000FC01E65AFF4F2081422F4455550B6A0135
:101AB000855A9F4FFC018081282F2851330B490103
:101AC000449F9001459F300D300D1124889CC0012A
:101AD000899C900D900D1124820F931F0E94060A7D
:101AE000082F6091DA087091DB088091DC08E72C00
:101AF0009401A601F50109950E94680A462F282F36
:101B0000672FCE010E948E092196B2CFB0E0A0E0EF
:101B1000ECE8FDE00C9413327C01C0913B02CC0F49
:101B2000CC0F14E01C0FD12E1C3510F03BE5D32E4A
:101B30006091DD0866958091D5089091D6080E9445
:101B40005E0AC82ED0E0CD1548F081E01B3508F0C4
:101B500080E0CDB7DEB7E8E00C942F32FE01E15112
:101B6000FC4F808190913C02892311F1CE01880FB6
:101B7000991F81529D4FFC01E55AFF4F208128514A
:101B8000330B865A9F4FFC0140814455550B6091A1
:101B9000DA087091DB088091DC080C2DF7010995BB
:101BA0000E94680A462F282F672FCE010E948E09B7
:101BB0002196C9CF40916305803F59F48091640517
:101BC00087FF0DC01092640541110BC010925B0598
:101BD00008C0813F81F48091640518169CF344236A
:101BE00081F08091650590916605892B09F05AC0B6
:101BF00010925A050895823F49F447FFF0CF1092A2
:101C00006305809164058111ECCFE0CF833F19F427
:101C10001416ACF3E4CF90916505893F29F41916A9
:101C2000F4F610926505DBCF8A3F19F497FFD7CF02
:101C3000F8CF909166058B3F29F497FFD0CF109293
:101C40006605CDCF8C3F19F41916CCF3C8CF9CE0B4
:101C5000980F953090F4845F990B21E030E0B90142
:101C600002C0660F771F8A95E2F7CB0180959091AD
:101C70006205892380936205B2CF8D3F31F4809154
:101C80005C058E7F80935C05AACF8E3F21F4809106
:101C90005C058D7FF7CF8F3F09F0A1CF80915C0568
:101CA0008B7FF0CF089580915C0580FD16C081FD8B
:101CB00016C082FD16C080915A058823A1F0883293
:101CC00080F428E0829FC001112468E270E00E9445
:101CD0004C32862F672B39F0089582E0089584E016
:101CE000089588E0089581E0089580915C0580FD65
:101CF00014C081FD14C082FD16C080915B0588234D
:101D000081F08E3180F420E5829FC00111246EE1C4
:101D100070E00E944C32862F089584E1089588E295
:101D2000089588E0089580E50895803F31F40E9489
:101D3000750E8195809364050895813F19F40E9482
:101D4000750EF8CF823F31F40E94750E8195809315
:101D500063050895833F19F40E94750EF8CF893FFB
:101D600029F40E94530E8093650508958A3F21F45B
:101D70000E94530E8195F7CF8B3F31F40E94530E92
:101D800081958093660508958C3F19F40E94530E47
:101D9000F8CF9CE0980F953070F4845F990B21E0A8
:101DA00030E001C0220F8A95EAF780916205822B0C
:101DB0008093620508958D3F31F480915C058160C8
:101DC00080935C0508958E3F21F480915C058260CC
:101DD000F7CF8F3FB9F780915C058460F1CF80E049
:101DE0000895F894E82FE295EF70F0E031A1282FE4
:101DF0002F7081E090E001C0880F2A95EAF7982FB4
:101E00009095932391A392A1892B82A3789408950E
:101E10009091A10892FF06C0282F28712830F9F46C
:101E2000877F846093FF06C0282F28712831F1F442
:101E3000877E84612091A20820FF06C0382F387168
:101E40003830D9F4877F816021FF06C0282F2871A0
:101E50002831D1F4877E816194FD877E0895282FF3
:101E600024712430F9F68B7F8860DCCF282F247111
:101E7000243101F78B7E8861DDCF382F317131300D
:101E800019F78E7F8860E0CF282F2171213121F74B
:101E90008E7E8861E1CFCF93DF93EC01823891058C
:101EA000B1F108F040C08133910509F49DC048F5B7
:101EB0008932910509F48DC08A9709F49CC0C11537
:101EC00021E5D20708F0C3C0C11530E5D30708F0FB
:101ED0001EC1C83ED10508F0A3C0C13ED10588F59A
:101EE000C83AD10508F08EC0C53AD10508F007C13F
:101EF000C130D10531F1209721F1C430D10508F569
:101F000045C08533910509F45FC0C997C1F680913A
:101F1000A108837009F043C18091A20883FF11C01A
:101F2000C9E2D0E00EC0833E910599F170F4803E85
:101F3000910501F1823E910511F68091A10882FD83
:101F400021C0CE01DF91CF910895863E910561F1C8
:101F5000873E910571F1843E910509F0B0CF8091E3
:101F6000A20881FFEECF8091A108C7EED0E084FDEA
:101F70000DC0E7CF8091A10880FD33C09091A208E9
:101F800090FFDFCFC3EED0E084FFDBCFD0E0C0E036
:101F9000D8CF8091A10882FDFFC09091A20890FD4A
:101FA000FEC084FFCECFF2CF8091A10883FDDDCFAC
:101FB000C8CF8091A10883FDF5C09091A20891FF40
:101FC000F0CFC4EED0E0BDCF8091A10885FFB9CF9E
:101FD000A7CF8091A10885FDE8C08091A20883FF6A
:101FE000B0CFC9E3D0E0ADCF8091A10886FFA9CFE3
:101FF000CAE2D0E0A6CF8091A10886FFA2CFC1E3BC
:10200000D0E09FCFCF3BD10508F6C85AD0E0CC0F27
:10201000DD1FC15ADD4F0990D881C02DD46491CF06
:10202000C11540E2D40758F4C11581E0D80708F083
:1020300088CFC03FD10508F4A9CFD06582CFC115A4
:1020400020E4D20708F4A2CFDF70D06A7ACFC1159E
:1020500035E5D30718F5C11544E5D40708F084C069
:10206000C11583E5D80708F06BC0C11522E5D2077A
:1020700008F461C0CE018370992721E030E002C0EE
:10208000220F331F8A95E2F7C695C69580E2C89F56
:10209000E0011124C22BD32BDC6853CFC11539E5E5
:1020A000D307A8F4C11548E5D40708F062C0C115EC
:1020B00086E5D80708F06ACF8C2F0E94080FC82F3A
:1020C000D0E0DC2FCC27CC27DF71D0623ACFC1150E
:1020D0002AE5D20708F452C0CE01905681159042ED
:1020E00008F054CF8D2F8F710E94080F90E0982F29
:1020F000882788279F719C012C2BE901E6CFC55AC0
:10210000D0E0C45ADD4FC881D0E0D0641ACFCE01F0
:102110008370992721E030E002C0220F331F8A9597
:10212000E2F7C695C69540E2C49FE0011124C22B98
:10213000D32BDD6806CFDC2FCC27C16FD06A01CF4F
:10214000CE018370992721E030E002C0220F331FB7
:102150008A95E2F7C695C69540E2C49FE001112436
:10216000C22BD32BDA68EDCEDC2FCC27C46FD06A1C
:10217000E8CEDC2FCC27C06FD06AE3CE8C2F8F70D7
:102180000E94080F34E0D695C7953A95E1F7CF70D5
:102190009C2FEC01D069D5CEC2EED0E0D2CEC0EEFD
:1021A000D0E0CFCEC6EED0E0CCCEC5E3D0E0C9CEF5
:1021B0008091EC0481111092EC0408958095909127
:1021C000EB0498239093EB0408958091C8049091B8
:1021D0009704981301C008958F5F8770FACF292F55
:1021E000963078F58F3068F590E03FE0239F800DC2
:1021F000911D1124682F677023E0969587952A9585
:10220000E1F7FC01EE0FFF1FE80FF91FE359FB4F49
:1022100050E040E080E0219130E0062E02C036958B
:1022200027950A94E2F721703327042E01C0220F6C
:102230000A94EAF7822B4F5F5F4F4330510559F7FD
:10224000089580E00895292F963098F58F3088F50D
:1022500090E03FE0239F800D911D1124282F2770CF
:1022600041E001C0440F2A95EAF723E0969587954F
:102270002A95E1F7FC01EE0FFF1FE80FF91FE35964
:10228000FB4F30E020E070E05191DF011197CB016E
:10229000022E02C0969587950A94E2F78170819587
:1022A0008527842385278C932F5F3F4F233031056B
:1022B00059F70895E7E2F2E08083618324E630E095
:1022C00042E050E0BF0180E60E94D431089580933F
:1022D000A3087093A5086093A4088091D408843063
:1022E000F9F48093E9008FEF9091E800815095FD1B
:1022F00006C095ED9A95F1F700008111F5CF809118
:10230000E80085FF0DC050E040E063E070E083EA44
:1023100098E00E94AB048091E8008E778093E800FB
:102320000895BC0184E00E9467110895BC0183E018
:102330000E94671108959C0184E08093E9009FEF5B
:102340008091E800915085FD06C085ED8A95F1F7F2
:1023500000009111F5CF8091E80085FF0CC050E09E
:1023600040E066E070E0C9010E94AB048091E800A3
:102370008E778093E8000895CF93DF93EC018091EE
:1023800026028823B1F18091A10887FF32C060E264
:1023900084E08093E9008FEF9091E800815095FDF3
:1023A00006C095ED9A95F1F700008111F5CF809167
:1023B000E80085FF1BC08091260270E050E040E0FD
:1023C000811104C050E040E068E070E0CE010E945E
:1023D000AB048091E8008E778093E80080E2FE01F4
:1023E000A9EAB8E001900D928A95E1F7DF91CF91CB
:1023F000089568E081E0CDCF81E08093E00080E245
:102400008093D8001092C9008FE19EE40197F1F704
:1024100000C0000087E090EBDC0180930C099093F2
:102420000D09A0930E09B0930F0988E19CE00FB647
:10243000F894A895809360000FBE90936000FFCF42
:10244000CF93DF93C7EFD2E060E0CE010E94163356
:102450002196C11584E0D807B9F7DF91CF9108958F
:102460001F93CF93DF93122F8430E0F46630D0F4C3
:102470004F30C0F4C42FD0E0CC0FDD1F9EE1699F28
:10248000C00DD11D112494EB899FC00DD11D1124C5
:10249000632FCE0187960E941633612FCE01889656
:1024A0000E941633DF91CF911F910895AF92BF9292
:1024B000CF92DF92EF92FF921F93CF93DF9380EE44
:1024C000C82E84E0D82ED0E07601C0E014C0F5011B
:1024D00025913491412F6C2F8D2F0E94301282E074
:1024E000A80EB11C1F5F1F3091F78EE1E80EF11CA2
:1024F000CF5FC63019F0570110E0E9CFDF5F84EB02
:10250000C80ED11CD43001F7DF91CF911F91FF90FD
:10251000EF90DF90CF90BF90AF900895CF93C82FEA
:102520006FEF811162E283E290E00E9416336FEF59
:10253000C11161E184E290E00E9416336FEFC11196
:1025400067E285E290E00E941633CF91089580E023
:102550000E948E1260E086E290E00E9416330E9494
:1025600056120E94201281E00E948E1208950F934D
:102570001F93CF93DF93843030F5663020F54F30D2
:1025800010F5C42FD0E0CC0FDD1F2EE1629FC00DEF
:10259000D11D112434EB839FC00DD11D1124CE0118
:1025A00087960E94F832082F10E0102F0027CE01E6
:1025B00088960E94F8329801282BC901DF91CF91AB
:1025C0001F910F91089590E080E0F8CF462F84305E
:1025D00040F4763030F46F3020F4672F0E94B71249
:1025E000089590E080E00895CF92DF92FF920F93DC
:1025F0001F93CF93DF936C0100910B098091ED0441
:10260000082BC7E0D0E010E0FC2EC8010C2E02C061
:10261000959587950A94E2F780FD0CC02197A0F765
:10262000F12C8F2DDF91CF911F910F91FF90DF90B3
:10263000CF900895B6018C2F0E94E6120E944B0F96
:10264000019761F3EECFCF93DF93EC010E94F41278
:10265000BE010E94E6120E944B0FDF91CF910895B8
:10266000FC0183819481892B29F0808191818923C8
:102670008F3F51F480E00895843FE1F717C0883E12
:10268000A8F0813FB9F712C0808191810E94231385
:1026900092959F70963099F358F4925F9F709230A4
:1026A00048F7803F19F040F7883E20F781E0089511
:1026B0009A5FF4CF83E290E00E94F832823289F48C
:1026C00084E290E00E94F832813159F485E290E092
:1026D0000E94F83291E0873209F090E0892F8170F2
:1026E000089580E0FCCFCF9384E090E00E94F83220
:1026F000C82F82E290E00E94F832982F8C2FCF9161
:102700000895CF93DF93C6E5D8E084E68FAFCE017E
:102710000E94D50480E4FE0111928A95E9F7DF91C9
:10272000CF910895A4E0B0E0E8E9F3E10C9416320B
:10273000F62E042F122F8B35910508F059C0880F03
:10274000991F880F991FBC016C587C4F44E050E0E2
:10275000CE0101960E94C9328981282F237030E072
:10276000869586954A81942F9295990F990F907C22
:10277000692F682B842F86958695782F7370EFE5E7
:10278000F1E02E9FC0012F9F900D3E9F900D1124D0
:102790008950994F680F791FFB01F082542F529591
:1027A0005F704B81E42FE295E07F6E2F652B542FF5
:1027B00052955F70752F7370680F791FFB0100834E
:1027C00042954695469543705C81E52FEE0FEE0FDE
:1027D0006E2F642B752F7295769576957370860F94
:1027E000971FFC0110832A50394F81E0F901808343
:1027F0002496E5E00C943232FF920F931F93CF930F
:10280000DF93182F062FF42ED0E0C0E02F2D402F9D
:10281000612FCE010E9492132196CB35D105B1F7DD
:10282000CDB7DEB7E5E00C9432320F931F93CF9310
:10283000DF938091F606882309F441C065EC8EEFA2
:102840000E945A1160E08DEF0E945A11D0E0C0E062
:1028500004EB10E0CE01B8010E944C3280932702B5
:1028600082E1FE01E950F94FA8E2B2E001900D9239
:102870008A95E1F724E630E043E150E067E272E058
:1028800080E60E94D431892BD1F46296C63581E06E
:10289000D807E1F482EA8093270289E0EDE4F8E0CA
:1028A000A8E2B2E001900D928A95E1F724E630E0CB
:1028B0004AE050E067E272E080E60E94D431109274
:1028C000F606DF91CF911F910F910895C43BD1057A
:1028D00009F665EC8EEF0E945A1161E08DEF0E94BF
:1028E0005A11B8CFA4E0B0E0E8E7F4E10C9411325B
:1028F0000E94343165EC8EEF0E945A1164E08DEF36
:102900000E945A1161E080E00E945A116FEF81E04D
:102910000E945A1167E782E00E945A118FE39CE9F6
:102920000197F1F700C0000004E713E020EEE22E6B
:1029300024E0F22E3FE5C32EDD24D394BB24BA94C9
:10294000AA24A39444E050E0B801CE0101960E946D
:10295000C9328981282F237030E0869586954A8177
:10296000942F9295990F990F907C692F682B842F43
:1029700086958695782F73702C9DC0012D9D900DA6
:102980003C9D900D11248A569A4F680F791FFB01C8
:10299000B082542F52955F704B81E42FE295E07F17
:1029A0006E2F652B542F52955F70752F7370680FC3
:1029B000791FFB01B08242954695469543705C8134
:1029C000E52FEE0FEE0F6E2F642B752F7295769517
:1029D00076957370860F971FFC01B0822B50394F8C
:1029E000F901A0820C5F1F4FE016F10609F0AACF93
:1029F00065EC8EEF0E945A1162E08DEF0E945A1131
:102A000096E9E92E95E0F92E10E0F70161917F013A
:102A1000812F0E945A111F5F143BB9F765EC8EEFAE
:102A20000E945A1163E08DEF0E945A118AE4E82E49
:102A300086E0F82E10E0F70161917F01812F0E945E
:102A40005A111F5F1B3AB9F71092F5062496EAE077
:102A50000C942D321F93CF93DF93EC01FC01E151D5
:102A6000FC4F80816823B1F00E94B932182F0E9478
:102A7000B9328F77782F20E8720F08F47FEF612F3B
:102A80008091DC080E94680A462F282F672FCE010C
:102A90000E948E09DF91CF911F910895B0E0A0E0D0
:102AA000E4E5F5E10C940E32182F80912202811397
:102AB00023C09091D90893702091210230E081E0E9
:102AC0009217130609F480E0817080933D02809193
:102AD000DE0890913C02981739F080933C0240E068
:102AE00060E080E00E948B09143260F4E12FF0E096
:102AF000E55CFA4C0C94603281E0E6CF80913D02B7
:102B0000811102C0C0E0B6C040E060E080E00E94F9
:102B10008B09F8CFC0913B02CC0FCC0F04E00C0F17
:102B2000F02E0C3510F0FBE5FF2E6091DA08709165
:102B3000DB088091DC080E94680AE62ED72EC82E9A
:102B4000D0E0CF1528F0C1E00B3508F493C0DACF00
:102B5000FE01E151FC4F808190913C02892331F0CC
:102B60002C2D4E2D6D2DCE010E948E092196E9CF80
:102B7000C0913B02CC0FCC0F04E00C0FE02E0C35C3
:102B800010F0EBE5EE2ED090DB08C090DC08209131
:102B9000DD0870E4F72E3F2D329F312D1124F32EE6
:102BA000D0E0CE1580F6FE01E151FC4F808190917E
:102BB0003C028923B9F0FE01EE0FFF1FE65CFC4FDB
:102BC000808182958F706091DA088F9D600D11244D
:102BD0007D2D8C2D0E94680A462F282F672FCE014D
:102BE0000E948E092196DDCFC0913B02CC0FCC0F05
:102BF00004E00C0FE02E0C3510F05BE5E52ED090D4
:102C0000DB08C090DC082091DD0840E4F42E3F2D65
:102C1000329F312D1124F32ED0E0CE1508F093CF42
:102C2000FE01E151FC4F808190913C028923D9F053
:102C3000FE01EE0FFF1FE75CFC4F6081F69EB001C6
:102C4000112435E0759567953A95E1F78091DA089A
:102C5000680F7D2D8C2D0E94680A462F282F672F24
:102C6000CE010E948E092196D8CF82E699E00E947B
:102C70007F0CC82F80913B028F5F80933B02C11174
:102C80000CC082E08093230280913D02811105C037
:102C9000111103C083E080932302CDB7DEB7EDE0CE
:102CA0000C942A3288E399E0E2CF86E399E0DFCF03
:102CB0008DE299E0DCCF84E299E0D9CF8BE099E016
:102CC000D6CF8DEF98E00E941B0DD3CF86E39AE01C
:102CD0000E94860DCECF8CEA99E0FACF81E999E087
:102CE000F2CF80ED98E00E94C70CC3CF82EA98E053
:102CF000FACF8BE698E0F7CFC0913B02CC0FCC0F18
:102D000004E00C0F80913D02811131C06091DD081B
:102D100020E1620F08F46FEF8091D5089091D608FA
:102D20000E945E0A6AE070E00E94F531892B09F08A
:102D30000ACF409124025091250225E038E0429FBD
:102D4000C001439F900D529F900D1124875E994CB6
:102D50009093250280932402890F6BE50E944032F4
:102D600060913C02892F90E00E94FC0AECCE802FFB
:102D70000C3508F08BE5D0E0E82EF12CCE15DF0500
:102D80000CF0E1CE60913C02CE010E94FC0A21963B
:102D9000F5CFC0913D02C1111EC06091DD0820E158
:102DA000620F08F46FEF8091D5089091D6080E94C9
:102DB0005E0A65E070E00E94F531892B09F0A2CE31
:102DC0000E94B9326BE570E00E944C3260913C0287
:102DD0000E942A154FCFC0913B02CC0FCC0F04E0CC
:102DE0000C0F802F0C3508F08BE5D0E0E82EF12C8D
:102DF000CE15DF050CF0A7CE60913C02CE010E94FB
:102E00002A152196F5CFC0913B02CC0FCC0F04E0E0
:102E10000C0FF02E0C3510F09BE5F92ED090DB084E
:102E2000E090DC08D091DA086091DD08669566953F
:102E300066958091D5089091D6080E945E0A0E94FE
:102E4000C409805887FD8195880F682F2CE0629F08
:102E5000612D11246D0F7D2D8E2D0E94680AE62EA6
:102E6000D72EC82ED0E0CF1508F06DCEFE01E1516F
:102E7000FC4F808190913C02892331F02C2D4E2D06
:102E80006D2DCE010E948E092196EDCF83EE99E043
:102E9000EECE8AE598E0EBCE83E598E00E940E0C3A
:102EA000E8CE8DE498E0FACF8091DF0821E0382F5A
:102EB000321B08F430E0832F64E378E00E94460B75
:102EC000D8CE64E378E080E0F9CF8091DF0821E09C
:102ED000382F321B08F430E0832F69EF77E0EECF14
:102EE00069EF77E0F0CF8091DF0821E0382F321BC7
:102EF00008F430E0832F67EC77E0E0CF67EC77E011
:102F0000E2CF8091DF0821E0382F321B08F430E057
:102F1000832F6FEA77E0D2CF6FEA77E0D4CF80914A
:102F2000DF0821E0382F321B08F430E0832F69E9F5
:102F300077E0C4CF69E977E0C6CFC0913B02CC0F00
:102F4000CC0F04E00C0FD02E0C3510F08BE5D82EF2
:102F5000EC2EF12C83E0C89FE0011124C05FDE4F0E
:102F6000ED1408F0F0CD6091DC0870E090E080E0B6
:102F70000E943E3420E030E04FE753E40E949D334E
:102F80004B015C016A8170E090E080E00E94403477
:102F9000A50194010E94CC340E940F34C62E688192
:102FA00070E090E080E00E944034A50194010E940E
:102FB000CC340E940F34762E698170E090E080E07E
:102FC0000E944034A50194010E94CC340E940F3429
:102FD0002C2D472DC7010E948E0923963FEFE31A3F
:102FE000F30ABECF80913B028F5F880F880FC1E04C
:102FF0008B3508F43FCE86CD46E050E06CE170E0C2
:1030000089ED98E00E9406331092950508954F923D
:103010005F926F927F928F929F92AF92BF92CF9268
:10302000DF92EF92FF92C0909005D0909105E090D2
:103030009205F09093058FB7F89440909D085090BA
:103040009E0860909F087090A0088FBF53014201B6
:103050008C189D08AE08BF080E940B06609390056F
:10306000709391058093920590939305A0916705C5
:10307000E7E6F5E04A2F50E02FEFC20ED21EE11C2A
:10308000F11CC418D508E608F708A51328C040931A
:10309000670520919405211135C03091D908232F5F
:1030A000237019F0232F2695269530912302313075
:1030B00009F441C0332341F1323009F440C03330C8
:1030C00009F448C0FF90EF90DF90CF90BF90AF9091
:1030D0009F908F907F906F905F904F900895218D7B
:1030E000328D2901712C612CC414D504E604F70437
:1030F00020F441505F5F3296C8CF280D391D328FC2
:10310000218FF8CF20E0D1CF10923B026093D508F9
:103110007093D6088093D7089093D80889E2E7E6A1
:10312000F5E0AFEDB8E001900D928A95E1F781E00E
:1031300080932302C7CF822F0E944E15C3CF2093C6
:1031400022028091D9088370809321020E94151475
:1031500083E0EECF8091950581110E94FC1740918C
:10316000D5085091D6086091D7087091D8082FB72C
:10317000F89480919D0890919E08A0919F08B0912D
:10318000A0082FBF841B950BA60BB70B4A97A10570
:10319000B10508F497CF1092230294CFE9EDF8E03F
:1031A0008DE5808380913E0290913F02A091400284
:1031B00081839283A3838FE784838FEF85830E942B
:1031C000FC1708958091EB049091EA04892B809379
:1031D0004C049091EC049923A1F0892B80934C042A
:1031E000809126028823E1F18091A10887FF38C0F1
:1031F0008EE1EEE4F4E090E08150A0F591110E94A0
:10320000D81040E250E06AEC74E08CE494E00E9454
:10321000D232892B21F180E2ECE4F4E0AAECB4E0B4
:1032200001900D928A95E1F7E0919808F091990844
:103230003097A9F080912602882359F08091A10847
:1032400087FF07C080914C0480934D0486E08093F3
:103250004C040280F381E02D8CE494E009950895FC
:1032600086E0C7CF2191222339F29F5FC5CF882303
:1032700021F00E94DE100E94E2180895882339F0A0
:103280009091EB04982B9093EB040E94E218089520
:1032900090E080E00E940033883E9E4F19F40E9427
:1032A0005A13089580E0089568EE7EEF90E080E084
:1032B0000E94343360E082E090E00E94163360E0C8
:1032C00083E090E00E9416331092ED0460E084E009
:1032D00090E00E94163364E082E290E00E94163390
:1032E00060E085E090E00E94163360E086E090E0C8
:1032F0000E9416336FEF87E090E00E94163340E0A3
:1033000050E0BA0188E090E00E94283360E08DE050
:1033100090E00E94163340E050E0BA0188E190E06E
:103320000E94283360E087E190E00E94163340E07D
:1033300050E0BA018CE190E00E94283370E060E038
:1033400080E290E00E94343340E050E0BA0188E12E
:1033500090E00E94283380E00E948E120E94A71203
:1033600040E050E0BA018FE090E00E94283340E056
:1033700050E0BA0183E190E00E94283308951F9243
:103380000F920FB60F9211242F933F934F935F9399
:103390006F937F938F939F93AF93BF93EF93FF931D
:1033A0008091E10082FF09C08091E20082FF05C0A8
:1033B0008091E1008B7F8093E1008091DA0080FFB3
:1033C00024C08091D80080FF20C08091DA008E7FD9
:1033D0008093DA008091D90080FF9DC080E189BD93
:1033E00082E189BD09B400FEFDCF81E08093D4085D
:1033F0008091A608811109C00E945B040E944E05BD
:103400008091E20084608093E2008091E10080FF7F
:1034100017C08091E20080FF13C08091E2008E7F90
:103420008093E2008091E20080618093E2008091CD
:10343000D80080628093D80019BC85E08093D408BE
:103440008091E10084FF2BC08091E20084FF27C0BF
:1034500080E189BD82E189BD89B5982F917080FF97
:10346000FBCF8091D8008F7D8093D8008091E100C0
:103470008F7E8093E1008091E2008F7E8093E20056
:103480008091E20081608093E2008091CB088823E4
:1034900009F447C084E08093D4088091D4088091D7
:1034A000E10083FF27C08091E20083FF23C0809169
:1034B000E100877F8093E10082E08093D40810923E
:1034C000CB088091E1008E7F8093E1008091E20043
:1034D0008E7F8093E2008091E20080618093E20021
:1034E00042E060E080E00E941C058091F00088606E
:1034F0008093F000FF91EF91BF91AF919F918F91D9
:103500007F916F915F914F913F912F910F900FBEDF
:103510000F901F90189519BC1092D4081092A6080D
:1035200074CF8091E30087FD93E09093D408B5CFEA
:1035300078941F921FB61F9211248F939F93AF937D
:10354000BF9380919D0890919E08A0919F08B09193
:10355000A0080196A11DB11D80939D0890939E081F
:10356000A0939F08B093A008BF91AF919F918F91B6
:103570001F901FBE1F9018959C014FB7F894809123
:103580009D0890919E08A0919F08B091A0084FBF00
:10359000821B930B08952FB7F89480919D0890910A
:1035A0009E08A0919F08B091A0082FBF08950E9487
:1035B000CB1A9C019091630580916405982B21F0B2
:1035C0003093600520935F059091650580916605B5
:1035D000982B21F030935E0520935D05E0919808CB
:1035E000F0919908309749F082E08093610504805A
:1035F000F581E02D81E695E00995089590E080E061
:103600000E948C0690E080E00E9476061092EA0408
:103610000E94E21886E0E1E6F5E0DF011D928A955E
:10362000E9F710925B0510925A0510925C050E9412
:10363000D71A089580930B090E94FE1A089580916D
:103640000B09982F9670963021F488600E941A1BFF
:103650000895877FFBCF21E030E001C0220F8A95DB
:10366000EAF7209580910B0982230E941A1B089586
:103670009091C904809589238093C904282F2770CD
:1036800091F4282F082E000C330B9217130659F0D3
:103690009091A20892FF07C08595859585950E9417
:1036A0002B1B1092C9040895CF93C091A208C2FBAE
:1036B000992790F9981791F080FBC2F9C093A2085E
:1036C0006091A10884E090E00E9416336C2F82E2A2
:1036D00090E00E94163382E00E94381BCF9108953B
:1036E00021E030E001C0220F8A95EAF780910B09B2
:1036F000822B0E941A1B08958093ED040E94FE1AEB
:1037000008951092EB0480912602EEE4F4E0882301
:1037100061F08091A10887FF08C08EE1DF011D9252
:103720008A95E9F70E94FE1A089586E0F7CFAAE28B
:10373000B0E0EDE9FBE10C9418328CEC98E02091BC
:10374000F100DC012D93CD01B8E0843D9B07B9F772
:103750008091CD08833009F472C0B8F4813009F447
:1037600049C0823009F4B3C08091E80083FF8BC266
:103770008091CC089091CD089A3008F084C2E92F4E
:10378000F0E0E15AFA4C0C9460328A3009F48EC0B1
:103790008B3009F471C0893039F78091CC088132BF
:1037A00019F78091D0089091D108009711F00297F5
:1037B000D9F68091E800877F8093E8008091E80047
:1037C00082FF38C09091F3008091F200029731F4AB
:1037D0008091F100813011F0863021F48091F10068
:1037E0008093A8088091E8008B778093E8000E947E
:1037F000FD04BACF8091CC08813A09F0B5CF809111
:10380000E800877F8093E8008091D0089091D108EC
:10381000892B61F460E289EA98E070E00E94A905D2
:103820008091E8008B778093E8009ECF60E090E085
:1038300080E0F3CF8091D4088111C0CF95CF8091E3
:10384000CC08813A09F090CF8091D0089091D108AE
:10385000892B09F089CF8091E800877F8093E80069
:103860008091E80080FFFCCF809126028093F100D8
:103870008091E8008E77B9CF8091CC08813209F031
:1038800073CF8091D0089091D108892B09F06CCF2B
:103890008091E800877F8093E8000E94FD0480917A
:1038A000CE08809326020E94811B5ECF8091CC08B7
:1038B000813209F059CF8091E800877F8093E8003A
:1038C0000E94FD048091CF088093A7084DCF80917E
:1038D000CC08813A09F048CF8091E800877F809337
:1038E000E8008091E80080FFFCCF8091A708BECF60
:1038F000803899F0823809F0C6C18091D0088F7065
:10390000873008F0C0C18093E9008091EB0085FB0F
:10391000882780F91092E90006C08091C90890912B
:10392000CA08911182609091E800977F9093E80017
:103930008093F1001092F1008091E8008E779FC192
:10394000882309F48DC1823009F09DC18091CE0891
:10395000811190C18091D0088F702FEF280F2630F1
:1039600008F091C18093E9002091EB0020FF82C113
:10397000933031F48091EB0080628093EB007AC148
:103980009091EB0090619093EB0021E030E001C05A
:10399000220F8A95EAF72093EA001092EA008091BC
:1039A000EB008860EACF81116EC11091CE081F77BD
:1039B0008091E3008078812B8093E3008091E80080
:1039C000877F8093E8000E94FD048091E80080FFDB
:1039D000FCCF8091E30080688093E30082E01111C6
:1039E00083E08093D4084FC18058823008F04BC1E7
:1039F0002091CE083091CF082C3DE3E03E07A1F5A1
:103A000083E08A838AE289834FB7F894DE011396B4
:103A100020E03EE051E2E32FF0E050935700E491C4
:103A200020FF03C0E295EF703F5FEF708E2F90E0B4
:103A3000EA30C0F0C7968D939D932F5F243159F7DC
:103A40004FBF8091E800877F8093E8006AE270E0D2
:103A5000CE0101960E94A9058091E8008B778093A2
:103A6000E80011C1C096E7CF8091D0089091D108AD
:103A7000432F55274330510509F44AC078F54130AA
:103A8000510509F47AC08BE590E0E0EBF7E04230B5
:103A9000510509F0F8C02091E800277F2093E80045
:103AA0002091D2083091D3088217930708F49C0123
:103AB00040E02115310509F065C0411163C08091D6
:103AC000E80082FDC9CF8091D408882329F285308F
:103AD00019F28091E80083FFF2CFBECF4132510549
:103AE00009F43CC04232510509F0CDC08330910544
:103AF00008F0C9C0FC01EE0FFF1FED52FD4F019011
:103B0000F081E02D80539D4FDC018C9190E01AC034
:103B1000332721303105D1F02115310561F02230F4
:103B2000310509F0B0C0EDE1F8E0E4918E2F90E0AE
:103B3000EDE1F8E007C0EDE3F8E0E4918E2F90E0CE
:103B4000EDE3F8E0009709F49EC0A5CFEBE2F8E0C2
:103B5000E4918E2F90E0EBE2F8E0F4CF8330910512
:103B600008F091C0880F991FFC01E752FD4F0190AA
:103B7000F081E02D89E090E08ECF82E190E0EBE0F3
:103B8000F8E089CF8091D408882309F465CF853087
:103B900009F462CF8091E80083FD5ECF8091E80058
:103BA00082FD8DCF8091E80080FF83CF9091F3005C
:103BB0008091F2002115310519F08830910550F0FF
:103BC00041E0089709F040E08091E8008E7780930B
:103BD000E8006FCF44914093F100319621503109B4
:103BE0000196E8CF803809F04EC08091E800877FC9
:103BF0008093E8008091CB088093F1009DCE8111E5
:103C000042C01091CE081230F0F58091E800877F15
:103C10008093E8001093CB080E94FD04112311F05B
:103C200084E005C08091E30087FDFACF81E08093B6
:103C3000D40842E061EC81E00E941C0542E261ECA4
:103C400084E00E941C0542E361EC82E00E941C05B6
:103C500042E360EC83E00E941C058091D40813C00D
:103C60008091CE08813079F481E0933009F080E0D2
:103C70008093CA081092E9008091E800877F8093C2
:103C8000E8000E94FD048091E80083FF0AC0809153
:103C9000E800877F8093E8008091EB00806280934A
:103CA000EB00AA96E3E00C9434321F920F920FB609
:103CB0000F9211242F933F934F935F936F937F93B2
:103CC0008F939F93AF93BF93CF93DF93EF93FF9324
:103CD000D091E900DF708091EC00C82FC17080FDA9
:103CE000C0E81092E9008091F000877F8093F00097
:103CF00078940E94971B1092E9008091F0008860F0
:103D00008093F000CD2BCF70C093E900FF91EF912D
:103D1000DF91CF91BF91AF919F918F917F916F91E3
:103D20005F914F913F912F910F900FBE0F901F9079
:103D300018950E94811B2FEF84E39CE02150804066
:103D40009040E1F700C0000088E19CE00FB6F894D5
:103D5000A895809360000FBE90936000FFCF8823EA
:103D600091F19CEF980F913A40F4682F8CE494E025
:103D70000E9417060E94E218089590E2980F98306A
:103D800050F4877091E001C0990F8A95EAF7892F66
:103D90000E94DE10EFCF9BE5980F933028F490E05F
:103DA00080E00E948C06089598E5980F973128F4DA
:103DB00090E080E00E9476060895803F20F00E9407
:103DC000DA0D0E94D71A0895CF93C82F8823D9F10E
:103DD0008CEF8C0F813AC8F580912602882311F16F
:103DE0008091A10887FF1EC0EC2FE695E695E69529
:103DF000F0E0E45BFB4F828190E04C2F477021E0C4
:103E000030E002C0220F331F4A95E2F7822393234A
:103E1000892B91F06C2F8CE494E00E9417060E948D
:103E2000E2180AC0EEE4F4E084E594E02191C217C0
:103E300089F38E179F07D1F76C2F8CE494E00E94D2
:103E400041060E94E218CF91089580E28C0F8830DD
:103E500068F4C77021E030E001C0220FCA95EAF78C
:103E60008091EB04822B8093EB04EBCFEBE5EC0F1E
:103E7000E33040F4F0E0E45AFD4F808190E00E948E
:103E80008C06E1CFE8E5EC0FE73150F4F0E0EE0FFF
:103E9000FF1FE15AFD4F808191810E947606D3CFAA
:103EA000C03F88F28C2F0E94950E0E94D71ACBCF6C
:103EB0001F93CF93DF93182FD0E0C0E0893311F424
:103EC000C0E5D0E0812F0E94E41E209739F4812FB5
:103ED0000E94AF1EDF91CF911F9108958FE99FE05F
:103EE0000197F1F700C000002197EFCF0F931F93C8
:103EF000CF93DF93C62FD42F022FFC01828188231A
:103F0000A9F060930A090E94CB1A90930909809343
:103F10000809C77081E001C0880FCA95EAF70E94BE
:103F20003E19DF91CF911F910F91089580910A0959
:103F3000681332C080910809909109090E94BC1A47
:103F4000883C910548F510E21D0FCD17B9F080E2CD
:103F50008C0F883040F4C77081E001C0880FCA958B
:103F6000EAF70E943719183048F481E09D2F9770C6
:103F700001C0880F9A95EAF70E943E19802F0E948F
:103F8000581F183070F6D77081E001C0880FDA959D
:103F9000EAF70E943719C5CFC77081E001C0880FCA
:103FA000CA95EAF7F6CFA5E0B0E0E9EDFFE10C94A1
:103FB0000A328C01FC0183819481892B31F080814C
:103FC000918189238F3F09F0F8C52596E1E10C9492
:103FD00026320E94F412F82E682F89819A810E945D
:103FE000231169817A818F2D0E94E6127C01F801EC
:103FF0008281882309F4D4C5970122513F4520319D
:10400000310508F09EC58FEF93E00E94F8328111D0
:1040100028C0FEEEEF0E57EF852E52E0952EE110F0
:1040200032C01C821B82442443944AE0342E740123
:104030008FEFE81AF80AC4010E94F83289831A82C5
:10404000882379F09FEF980F933058F58A8349823F
:1040500092E0890E911CC7010E94F8328B83811176
:1040600021C08091C904877009F4AFCFF801828123
:10407000882309F4AACF8091A20882FFA6CF82E00C
:104080000E94381BA2CF811424E0920651F3C40190
:104090000E94F832811101C0EA943FEF831A930A1B
:1040A000BECF4701FE0131967F01F7012081222317
:1040B00009F4BDCF213009F047C091818281913050
:1040C00031F4F2E0EF0EF11C0E94581F07C092304D
:1040D00049F422E0E20EF11C0E94E41E3FEFE31AD5
:1040E000F30AE3CF933031F432E0E30EF11C0E9487
:1040F000AF1EF4CF943021F08FEFE81AF80AEECF1C
:1041000092E0E90EF11C30E020E0B7016F5F7F4FD5
:10411000F70141818053990B8A30910550F021506D
:104120003109E0F28FE99FE00197F1F700C000004C
:10413000F6CF329EF001339EF00D11249C012E0F1C
:104140003F1F842F7B01E1CFE22FF0E0EC50FE4FC8
:104150005490822F86958695869590E0FC01EC51CF
:10416000FE4F64902770712C022E02C075946794E4
:104170000A94E2F7E1E06E227724FC01EC52FE4F54
:10418000A490B12C022E02C0B594A7940A94E2F731
:10419000F1E0AF22BB24FC01EC53FE4FC490D12CC4
:1041A00002C0D594C7942A95E2F721E0C222DD240B
:1041B0006114710419F081EE0E94E41EA114B1048F
:1041C00019F086EE0E94E41E852D0E94581FA1144E
:1041D000B10419F086EE0E94AF1E6114710419F04B
:1041E00081EE0E94AF1EC114D10409F477CF8CE296
:1041F0006BCF81E00E94701B0E941F1B32CF81E0B9
:104200000E942B1BF9CF82E0F5CF882309F429CF38
:1042100082E20E94890781E08093590522CF88239A
:1042200009F41FCF83E20E9489071092590519CF24
:1042300023EFE2162CE5F20609F482C0C0F498EDF3
:10424000E9169CE5F90609F477C0E9EDEE16ECE510
:10425000FE0609F481C0F7EDEF16FCE5FF06B9F4A0
:1042600026E241EE61EEC8010E94761FFACE25EFEC
:10427000E2162CE5F20609F46BC008F465C027E2EB
:1042800045EE66EE96EFE9169CE5F90661F38823A4
:1042900009F4A4C410920A09E3E0EE16EDE5FE0667
:1042A00008F05DC0FAEFEF16FCE5FF0630F4C70139
:1042B00082509C45449708F05FC00E94731390930E
:1042C000A2088093A10892E1E9169CE5F90609F499
:1042D00076C108F0B8C0F9E0EF16FCE5FF0609F476
:1042E0004CC108F07BC035E0E3163CE5F30609F469
:1042F00038C108F05FC093E0E9169CE5F90609F4BF
:1043000028C108F02AC18091A1088160F2E0EF166F
:10431000FCE5FF0609F494C06091A108F090A208A2
:1043200084E090E00E9416336F2D82E290E00E94BC
:1043300016330E94811B95CE27E245EE65EE93CFA2
:1043400026E241EE60EE8FCF27E245EE64EE8BCFA2
:1043500026E241EE62EE87CF28E241E0EFCF25EA88
:10436000E2162DE5F20609F4A8CFF0F481E6E8168E
:104370008DE5F80609F4A1CF36E1E3163CE5F30636
:1043800009F0A8C48091EB048A7A91E009F490E0E6
:1043900090936C0469E2811165E38CE494E00E94DF
:1043A00041060E94E2185DCEC7018D5A9D450397D4
:1043B00018F783CF8091A108806227E0E2162CE5F0
:1043C000F206F1F18091A108806138E0E3163CE546
:1043D000F306B0F18091A108806432C08DE0E81648
:1043E0008CE5F80609F4D3C0A0F48091A1088E7F73
:1043F000EBE0EE16ECE5FE0619F18091A1088C6069
:10440000FCE0EF16FCE5FF06D8F08091A1088D7F57
:1044100017C02FE0E2162CE5F20609F4C8C008F434
:10442000BAC080E1E8168CE5F80609F4C4C08091B2
:10443000A1088F7B91E1E9169CE5F90609F06CCFA4
:104440008093A10869CFEFEFEE16ECE5FE0609F4C4
:10445000C0C0C8F52AEFE2162CE5F20609F485C0C3
:10446000D0F484E1E8168CE5F80609F4C0C008F43D
:10447000ACC0E5E1EE16ECE5FE0609F04DCF80910B
:10448000A10882FB992790F921E0922790FB82F9FD
:1044900090FB83F9D5CFFCEFEF16FCE5FF0609F49E
:1044A0007EC008F466C03DEFE3163CE5F30609F470
:1044B0007AC08EEFE8168CE5F80609F02DCF8091D2
:1044C000A208836043C091E6E9169DE5F90609F468
:1044D00099C0A0F4F1E0EF16FDE5FF0609F490C0E5
:1044E00008F47BC060E032E0E3163DE5F30609F036
:1044F00013CF8EE090E00E9416330ECF8DEAE816BF
:104500008DE5F80601F168F49091A108892F8E7F5E
:1045100090FF8160E5EAEE16EDE5FE0609F490CF26
:10452000FBCEFEEAEF16FDE5FF0669F12FEAE21683
:104530002DE5F20609F0F0CE9091A208892F877F31
:1045400093FF886003C08091A20888608093A208CE
:10455000E3CE8091A108826073CF8091A10884602E
:104560006FCF8091A10888606BCF8091A208816095
:10457000EDCF8091A2088260E9CF0E94811B8091DB
:10458000A10880685DCF8091A208877FDFCF8091EE
:10459000A1088B7F55CF8091A108877F51CF809153
:1045A000A2088E7FD3CF8091A2088D7FCFCF80913C
:1045B000A1088F7E45CF8091A1088F7D41CF0E94B9
:1045C000811B8091A1088F773BCF8091A108837FC9
:1045D00037CF8091A2088C7FB9CF8091A208982F05
:1045E000909591708E7F892B90FB81F9AFCF0E94BF
:1045F000811B9091A108892F97FB87F9805820CFC4
:1046000061E077CF9091A108892F8F7E94FF806120
:1046100017CF80916C0469E2811165E38CE494E02A
:104620000E941706BECE42E757E06DE777E00E9492
:10463000AF0617CD4DE757E062E777E0F8CF43E4E8
:1046400057E06EE477E0F3CF4EE457E063E477E0C1
:10465000EECF47E257E065E377E0E9CF45E357E087
:1046600067E277E0E4CF49E157E06BE077E0DFCF46
:104670004FED56E06DEE76E0DACF4DEE56E06FEDA1
:1046800076E0D5CF61E081E088C261E087E085C255
:104690000E94811B8FEF94E3ECE081509040E0405A
:1046A000E1F700C000000E94FC118091A20882FB8B
:1046B000882780F991E089270E94541BF8018281A4
:1046C000E080F180882309F445C0C7010E94F412FC
:1046D000D82E682FC7010E942311B7018D2D0E948B
:1046E000E6120E944B0F7C01882EF801D280B58023
:1046F000B2943FE0B3228091C9048770C1F0AD2C21
:10470000DD20B1F08F2D807F803421F080E28E0D8E
:10471000883068F08091A20882FF09C082E00E9480
:10472000381B8091C9048770AA24A3948111A12CFD
:104730009F2C92942FE09222FBE0F91508F479C0A7
:10474000E92DF0E0E759FA4C0C94603281E0B4CFE7
:1047500080E0B2CFC7010E94EF10D82EBECF2F2D20
:104760002F70C22E8F2D807F19F0C29490EFC92236
:10477000DD20B9F0CC2069F080E28E0D883010F099
:10478000811009C08091EB04C82AC092EB040E94FA
:10479000E2188E2D4CC08091EA04C82AC092EA0427
:1047A000F6CF8E2D0E94AF1ECC2009F442C080E2CD
:1047B0008E0D883010F0811004C08C2D0E94DE1008
:1047C00006C0C0948091EA04C822C092EA040E9404
:1047D000E2182FC03F2D3F70C32E8F2D807F803277
:1047E00019F0C29480EFC822882089F081E08816F1
:1047F00009F468C0DD2009F472C0BB2009F468C068
:10480000F801858180FFC5CF8F70858361C02091BD
:10481000A20822FD35C0DD2069F1CC2039F080915D
:10482000EB04C82AC092EB040E94E21880E00E94C8
:10483000E41E292D2850330B2430310510F40E943A
:10484000A206AA2009F4C1CB8091C90480FDBDCB8A
:10485000F80112828595859585950E94701BC80187
:104860000E94D31F8091C9048595859585950E94E6
:104870002B1BABCB80E00E94AF1ECC20D1F29DCF92
:10488000DD2099F09091EC048C2D892BB11003C0A0
:104890000E943E19CECFE1E0BE12FACF22FFC9CF6F
:1048A000981739F28093EC04C4CFB11006C00E946F
:1048B000D8108C2D0E943719BCCFF1E0BF1609F437
:1048C000B8CFF5CFDD2031F025E02B1508F4B1CFBE
:1048D0008C2DDECF34E03B1508F4ABCFEACFBB2004
:1048E00041F3F9E38F1209C02FEF37EE83E0215037
:1048F00030408040E1F700C000008E2D0E94AF1EC6
:1049000098CF8F2D86958695837061F0813009F060
:1049100090CFC7019370D11002C090E080E00E9458
:10492000760687CFC7019370D11002C090E080E077
:104930000E948C067ECF8E2DDD2029F00E94950EE0
:104940000E94D71A76CF0E94DA0DFACF8F2D83708E
:1049500091F5D1106ECF4E2D429546954770440F7C
:10496000440F8E2D8F70042E01C0880F0A94EAF731
:104970002E2D2071E4FE07C02FE030E001C0220F91
:104980004A95EAF720953F2D3695369533703230AB
:1049900069F050F44091ED04313029F0822B8423EA
:1049A0000E947C1B46CF842B822BFACF282B809130
:1049B000ED048227F5CF8695DD2011F08F2D8170D3
:1049C000882309F436CF4E2D429546954770440F03
:1049D000440F8E2D8F70042E01C0880F0A94EAF7C1
:1049E0002E2D2071E4FE07C02FE030E001C0220F21
:1049F0004A95EAF720953F2D36953695337032303B
:104A000069F050F440910B09313029F0822B842356
:104A10000E941A1B0ECF842B822BFACF282B809159
:104A20000B098227F5CF9F2D9F70F92EDD2029F0ED
:104A3000892F0E94701B8E2D2BCF8E2D0E9437192F
:104A40008F2D0E942B1BF5CE8E2DE2EF8E16B1F12D
:104A5000E81570F0F0EF8F16D1F021EF821691F08B
:104A6000DD2009F45EC0B11094CE8F2D8F712AC065
:104A700033EF831651F194EF8912F2CF8091A2089F
:104A800082FD2FC08F2D8F71DD20D9F21BC0DD205C
:104A900081F0E4E0EB1508F4CCCE2F2D2F7181E0EE
:104AA00090E001C0880F2A95EAF790910B098927B9
:104AB000AFCFF5E0FB1508F4BCCEEFCF8F2D8F7193
:104AC000D110BFCF0E94701BB4CE80E0DD2009F46E
:104AD0009FCF9F2D9F7181E001C0880F9A95EAF7C3
:104AE00097CFDD2099F02F2D2F71F22E822F0E946B
:104AF000701B8091A20882FF07C038E0F39EC001BE
:104B0000112483608093C9048F2DDCCF81E00E9443
:104B1000381B81E08B1508F08CCE82E00E94381B98
:104B200088CEBB2059F0893309F0E7CE9FEFE7EE3E
:104B3000F3E09150E040F040E1F7DDCE8F2D8F7132
:104B400080CFF0E1EF16FFE5FF0609F452CB21E13B
:104B5000E2162FE5F20609F456CB91EBE9169DE536
:104B6000F90609F452CBE2EBEE16EDE5FE0609F488
:104B700056CBF3ECEF16FCE5FF0609F059CB882382
:104B800009F46FCA109259058091D90886958695C7
:104B90008F5F843208F081E060E00E94590761CAAB
:104BA00030E1E3163FE5F30609F429CB91E1E9167C
:104BB0009FE5F90691F682E023CB85E0DE011196B0
:104BC00001900D928A95E1F7F801228189819A81FD
:104BD0002111FFC90E94EF10F82E03CAF6E1EF166B
:104BE000FCE5FF0609F415CD8091EB0482722AECF6
:104BF000E2162CE5F20609F436CDE0F595ECE9165F
:104C00009CE5F90609F41BCDE0F4F3ECEF16FCE5A6
:104C1000FF0609F408CD08F00DCD32ECE3163CE5B3
:104C2000F30609F04BCD8091D90891E08927809354
:104C3000D908109223028091950581608093950593
:104C400010CA97ECE9169CE5F90609F402CD08F4C0
:104C5000FBCCF8ECEF16FCE5FF0609F4FFCC4BE0CB
:104C600057E069E177E029ECE2162CE5F20609F459
:104C7000DECC24CD3FECE3163CE5F30609F405CD8C
:104C8000A8F4ECECEE16ECE5FE0609F4F6CC08F41C
:104C9000EFCC2DECE2162CE5F20609F4F3CC3EEC59
:104CA000E3163CE5F30609F4DCC908CD86EDE81609
:104CB0008CE5F80648F461E08CE091EDE9169CE59E
:104CC000F90608F46ACFCDC9EDE5EE16FE0609F443
:104CD000C8C9F4CCFAE5EF16FDE5FF0609F436CDB8
:104CE00078F4E1143CE5F30609F4D2CC8EEDE81635
:104CF0008CE5F80609F0E2CC0E9454190E94991E36
:104D00009CE5E9169DE5F90609F4CFCC08F420CD21
:104D1000F7EAEF16FDE5FF0689F3D0CC1F93CF939A
:104D2000DF9380919604807F09F049C080919304BD
:104D3000882309F444C08091C804D09197046091FD
:104D4000910470919204A0919404B0919504C62F9F
:104D5000C72316E0D81799F190E0109711F0CF3FD4
:104D600019F401968770F6CF189F9001199F300DA6
:104D70001124F901E856FB4F41814713F2CF4081DE
:104D80004613EFCF42814111ECCF438154814A1B3E
:104D90005B0B483C510528F7809196048F70806129
:104DA00080939604F901E356FB4F80818F708061F8
:104DB000808381E994E00E94D31F0E94E510DF9177
:104DC000CF911F910895A1E1B0E0E9EEF6E20C94D5
:104DD00011328C0185E0F801DE011D9601900D92E3
:104DE0008A95E1F7F801E28081E9A82E84E0B82EE7
:104DF00060919404709195046115710509F426C1C0
:104E00009091910440919204892F84238F3F09F45B
:104E10001DC120813181C380D480F0909304F601BC
:104E2000E61BF70BFF2009F4DCC080919604582F95
:104E3000507FE83CF10508F09FC051116BC0FE2C7B
:104E4000431314C0921312C0E11010C08F70806120
:104E500080939604C5010E94D31F80919604F801A7
:104E600085838F2D6196EAE00C942D32C114D10414
:104E700029F0822F83238F3F09F003C180E0F82FB0
:104E8000F170DF2E80FF3CC08091C80440919704F0
:104E900056E0841315C02D873E878D859E850E9420
:104EA0002313292F22952F702230F0F0243018F58B
:104EB0009F70F1F0F8019581907FD1F4D12C1EC044
:104EC00090E0589FF001599FF00D1124E856FB4FD8
:104ED0006181361306C06081261303C06281E61229
:104EE0000FC001968770D5CF9F7011F0882331F3E2
:104EF000805E883018F3C8010E94D31FFD2CB1CF0B
:104F0000EE2009F4AECF80919604816080939604E0
:104F1000F12CA7CF431306C0921304C0F801EE2072
:104F200009F479C0C8010E943013882309F1EE20EA
:104F3000F9F080919604803270F0209191043091C4
:104F4000920438872F831986DB86CA868C87CE0128
:104F500007960E94D31F86E0F801A1E9B4E0019012
:104F60000D928A95E1F70E948E26FF24F39479CF63
:104F7000C8010E94D31FF9CF51110AC081E994E002
:104F80000E94D31F86E0F50111928A95E9F7C0CF00
:104F900043130FC092130DC0E1100BC0F8018583BD
:104FA000C8010E94D31F86E0F50111928A95E9F7A6
:104FB00058CFC8010E9430138823D1F2EE20C1F2ED
:104FC00080919604803238F22091910430919204BD
:104FD0003A8329831B82DD82CC828E83CE010196A7
:104FE000B8CFE83CF105F8F6FE2CEE2009F24313A9
:104FF0001FC092131DC08091960480FD10C0982F91
:10500000907F69F0F8018583903F31F0982F907F71
:10501000905F8F70892B8583C8010E94D31F86E023
:10502000F801A1E9B4E001900D928A95E1F719CF5A
:10503000C8010E94301381118ECF80919604816047
:1050400080939604C8010E94D31F0BCFEE2009F471
:105050008FCFC8010E943013F82E882309F488CF1F
:1050600086E0F801A1E9B4E001900D928A95E1F79C
:1050700080919104909192040E9423130E948E26A5
:10508000F0CE81E08E25FBCEA7E1B0E0EAE4F8E2C5
:105090000C9418324B8B5C8B6D8B7E8B8F8B6111DC
:1050A0001092EA041A8A198A85E0FE017396DE01DD
:1050B0001D9601900D928A95E1F786E0FE013D96DE
:1050C000DE01179601900D928A95E1F7CE010796C1
:1050D0000E94E326882359F016E08091C80490913D
:1050E0009704891343C06796E3E00C94343286E05A
:1050F000FE013796DE01119601900D928A95E1F737
:105100008A859B85892B41F38F81988589238F3FE1
:1051100019F32091970430E0C9010196877099270F
:105120004091C8044817190671F40E94811B10921F
:1051300097041092C80486E0E1E9F4E0DF011D92D3
:105140008A95E9F7C9CF96E0929FD001939FB00D61
:105150001124A856BB4FFE01319601900D929A95ED
:10516000E1F7809397040E94E510B6CF819FC001BC
:10517000112488569B4F0E94E326882309F4B3CF5D
:105180008091C80490E00196877099278093C804A5
:10519000A4CFACE0B0E0EFECF8E20C940F328E015B
:1051A0000F5F1F4F8CE0F80111928A95E9F79DE897
:1051B000E92E92E0F92E6801AA24A394B12CF701FC
:1051C00081917F018F3F09F446C0F894E82FE29562
:1051D000EF70F0E021A18F70A50102C0440F551FB0
:1051E0008A95E2F7CA01922F982B91A392A18095FC
:1051F000892382A3789400C0E3E9F2E021E030E063
:10520000912C812C41914F3F09F467C0A42FA295A6
:10521000AF70B0E090968C9190E04F7002C0959581
:1052200087954A95E2F780FD58C0C901882A992AD6
:10523000220F331F52E0E23AF50721F7F7013197C9
:1052400080818F3F11F00E94F10E80EA8A95F1F77C
:10525000F60191828082F2E0CF0ED11C43E9E41680
:1052600042E0F40609F0ABCF4CE050E0B80181EF2A
:1052700094E00E94D232892B99F18CE0F801A1EFE1
:10528000B4E001900D928A95E1F781E08093F004FB
:105290000E94CB1A9093EF048093EE048091EE0469
:1052A0009091EF040E94BC1A0397F0F04CE050E09C
:1052B00061EF74E08DE095E00E94D232892BC9F055
:1052C0008CE0E1EFF4E0ADE0B5E001900D928A955D
:1052D000E1F781E01092F00408C090E080E0A6CFF2
:1052E0008091F0048111DACF80E02C96ECE00C94F0
:1052F0002B3280E0EFCF1F921FB61F9211248F93A5
:105300009F93AF93BF9380919C08811113C08091AC
:105310009D0890919E08A0919F08B091A008419689
:10532000A11DB11D80939D0890939E08A0939F0896
:10533000B093A008BF91AF919F918F911F901FBE16
:105340001F901895CDB7DEB7C255D1090FB6F894A6
:10535000DEBF0FBECDBF85B7806885BF85B78068CB
:1053600085BF84B7877F84BF0FB6F894A8958091D6
:105370006000886180936000109260000FBE80E83A
:1053800090E00FB6F89480936100909361000FBE97
:105390008FEE9EE090934B0480934A04279A2F9AB5
:1053A0000E945B040E944E058091E200846080931D
:1053B000E20078948091D4088823A1F01091E9004C
:1053C0001F709091EC00892F817090FD80E8182B60
:1053D0001092E9008091E80083FD0E94971B1F70E6
:1053E0001093E90082E084BD93E095BD9AEF97BDEC
:1053F00080936E000E945A13811102C00E94A7126E
:105400000DE812E0D8018D918D018F3F11F00E94BF
:10541000F10EB2E003391B07A9F703E912E0F80126
:1054200081918F018F3F11F00E94F10EF2E0023A5C
:105430001F07A9F78CE0EDE0F5E0DF01282F1D92B2
:105440002A95E9F7E1EFF4E0DF011D928A95E9F78B
:105450000E944819811102C00E94541982E090E014
:105460000E94F8328093FF040E9473139093A20865
:105470008093A1080E94C928EFEBFDE53197F1F771
:1054800000C000000E94C92880910D0580FF08C05F
:105490006FEF7FEF90E080E00E9434330E94FC11B8
:1054A00083E090E00E94F8320E947C1B0E947214FC
:1054B0001092DF088FEF9FEF9093F9088093F80820
:1054C0009093FB088093FA089093FD088093FC0862
:1054D0009093FF088093FE08909301098093000940
:1054E000909303098093020990930509809304091E
:1054F00090930709809306091092670590938105A0
:105500008093800590938305809382059093850511
:1055100080938405909387058093860590938905F1
:105520008093880590938B0580938A0590938D05D1
:1055300080938C0590938F0580938E050E94481967
:10554000811104C00E9454190E94CE1846E050E018
:105550006CE170E089ED98E00E94E83210929505C8
:105560008091D9088C7F11F40E94CE1884E091E0DC
:1055700090939908809398088091D408853099F485
:1055800080E4F82EEE24E39493E0D92E00E112E1BA
:105590008091D408853009F4F9C00E94811B0E94D3
:1055A000A206109294050E94C92880E095E02F96EB
:1055B0009FAF8EAF2F970DE0E02E05E0F02ED701C4
:1055C000FC01219131918D919D9145E0EC30F407E2
:1055D00009F42CC128173907A1F31FED212E12E081
:1055E000312E8DE095E061969FAF8EAF6197712C63
:1055F0006196AEADBFAD6197CD90DD906196BFAFC6
:10560000AEAF61972F96EEADFFAD2F97819191913F
:105610002F96FFAFEEAF2F978C159D0509F4ACC008
:105620009C012C253D2563963FAF2EAF63972D96A9
:105630003FAE2EAE2D97612CAA24A394B12C639675
:105640008EAD9FAD63978A219B21892B09F47EC083
:1056500086010A211B2127966FAE279728967FAED9
:10566000289781E00115110509F480E029968FAF94
:1056700029970E94CB1A8160782F2B969FAF8EAF0F
:105680002B9727964FAD279728965FAD2897299699
:105690006FAD29972B968FAD2B970E944428012B35
:1056A00041F02D96AEADBFAD2D978C918F3F09F097
:1056B00000C2412C042D10E080916705800F912FCE
:1056C000911D09976CF1E8E08E2E912C801A910AB9
:1056D000B80168597A4FA40188E695E00E94DF324C
:1056E000B80160597A4FA40180E795E00E94DF324B
:1056F000A401440F551FB801660F771F60587A4FF9
:1057000080E895E00E94DF32B80168587A4FA40122
:1057100088E795E00E94DF3288E08419809367056E
:105720008091670590E0A52DB0E09D01220F331F09
:10573000275C3C4FAA0FBB1FBD01665C7C4F41E05C
:10574000480F941508F4B9C1809367056394AA0CB7
:10575000BB1C2D96EEADFFAD2D9731962D96FFAF6C
:10576000EEAF2D97FFE06F126ACF2F96EEADFFAD33
:105770002F973297D182C08273942FE0220E311C72
:1057800036E0731235CF0E940B0682C08091D40898
:10579000843009F438C00E94071880919405811163
:1057A0000DC00E944E15109222028091D90883707C
:1057B000809321020E941514D0922302E092940556
:1057C00010929C0828E130E00FB6F894A895209339
:1057D00060000FBEF092600083B7817F846083BF5A
:1057E00083B7816083BF7894889583B78E7F83BFAA
:1057F0000FB6F894A895809160008861809360004E
:10580000109260000FBE8091CA08882309F4C0CEB0
:105810000E94C928EDE0F5E081919191892B09F072
:10582000E8C435E0E931F307B9F7B2CE28173907F4
:1058300009F0D3CE0E94CB1A8C018091FD04909187
:10584000FE040817190721F18FEF22968FAF2297D8
:1058500023968FAF239724961FAE24970E94CB1ACE
:105860008160782F26969FAF8EAF269722964FADF8
:10587000229723965FAD239724966FAD24972696A3
:105880008FAD26970E9444281093FE040093FD04D8
:105890000E94071886E0E1E6F5E0DE01119601902E
:1058A0000D928A95E1F710926305109264051092AB
:1058B0006505109266058B819C81892B09F44AC08D
:1058C00080915F05909160050E94BC1A9C019091A7
:1058D0005B05992309F4C3C425313105D8F19F3FF5
:1058E00019F09F5F90935B051B81112359F00E9473
:1058F000750E9FEF11160CF491E0899F802D1124F5
:10590000809363051C81112359F00E94750E9FEF4F
:1059100011160CF491E0899F802D11248093640569
:10592000309163053323B1F020916405222391F077
:1059300045EB3403C0011124992309F4D3C090939B
:10594000630545EB240390011124332309F4CEC0F1
:10595000309364058D819E81892B09F44AC0809122
:105960005D0590915E050E94BC1A9C0190915A05BC
:10597000992309F46FC421353105D8F19F3F19F0FF
:105980009F5F90935A051D81112359F00E94530E79
:105990009FEF11160CF491E0899F802D11248093C4
:1059A00065051E81112359F00E94530E9FEF1116B9
:1059B0000CF491E0899F802D11248093660530912D
:1059C00065053323B1F020916605222391F045EB64
:1059D0003403C0011124992309F48CC09093650508
:1059E00045EB240390011124332309F487C030933D
:1059F000660546E050E0BE016F5F7F4F81E695E0AF
:105A00000E94D232892B61F48091630590916405E4
:105A1000892B90916505892B90916605892B11F052
:105A20000E94D71A86E0FE013196A1E6B5E001900A
:105A30000D928A95E1F70E94A20690910C058917B4
:105A400021F080930C050E940B068091D4088430CD
:105A500009F092CD83E08093E9008091E80082FF15
:105A60008BCD8091E80090E085FF0CC00E947A0405
:105A700090E4C92ED12C8E010F5F1F4F882309F4AB
:105A80004BC091E08091E8008B778093E8009923E8
:105A900009F472CDE98180915905882309F489C1FF
:105AA000E150E93008F068CDF0E0EB58FA4C0C9486
:105AB0006032582E44244394FDCD90E0FC01E95916
:105AC000FA4FD9015C915183DB015C915187518A76
:105AD000880F991FFC01E959FA4F128E118E91E03F
